:100000000C9462000C948A000C948A000C948A0070
:100010000C948A000C948A000C948A000C948A0038
:100020000C948A000C948A000C948A000C948A0028
:100030000C948A000C948A000C948A000C948A0018
:100040000C94A7020C948A000C9417030C94F102F0
:100050000C948A000C948A000C948A000C948A00F8
:100060000C948A000C948A000000000024002700F1
:100070002A0000000000250028002B0000000000DE
:1000800023002600290004040404040404040202DA
:100090000202020203030303030301020408102007
:1000A0004080010204081020010204081020000012
:1000B0000008000201000003040700000000000027
:1000C0000000540411241FBECFEFD8E0DEBFCDBF27
:1000D00011E0A0E0B1E0ECE1F9E002C005900D9282
:1000E000A636B107D9F722E0A6E6B1E001C01D921D
:1000F000AD30B207E1F710E0C2E6D0E004C02197CE
:10010000FE010E948104C136D107C9F70E9449034C
:100110000C948C040C940000833081F028F481301E
:1001200099F08230A1F008958730A9F08830B9F0B5
:100130008430D1F4809180008F7D03C08091800055
:100140008F7780938000089584B58F7702C084B53F
:100150008F7D84BD08958091B0008F7703C080911A
:10016000B0008F7D8093B0000895CF93DF93282F48
:1001700030E0F901E255FF4F8491F901E656FF4F57
:10018000D491F901EA57FF4FC491CC2391F081112A
:100190000E948C00EC2FF0E0EE0FFF1FE458FF4FA1
:1001A000A591B491EC91ED2381E090E021F480E001
:1001B00002C080E090E0DF91CF9108951F93CF932C
:1001C000DF93282F30E0F901E255FF4F8491F901C8
:1001D000E656FF4FD491F901EA57FF4FC491CC2363
:1001E000C1F0162F81110E948C00EC2FF0E0EE0F71
:1001F000FF1FEE58FF4FA591B4919FB7F8941111CE
:1002000004C08C91D095D82302C0EC91DE2BDC93F6
:100210009FBFDF91CF911F910895CF93DF9390E01F
:10022000FC01E656FF4F2491FC01EA57FF4F8491F1
:10023000882361F190E0880F991FFC01E859FF4F76
:10024000C591D491FC01EE58FF4FA591B491611175
:1002500009C09FB7F8948881209582238883EC9108
:100260002E230BC0623061F49FB7F8948881322F3F
:10027000309583238883EC912E2B2C939FBF06C04F
:100280008FB7F894E8812E2B28838FBFDF91CF9111
:1002900008953FB7F89480916C0190916D01A09101
:1002A0006E01B0916F0126B5A89B05C02F3F19F0D4
:1002B0000196A11DB11D3FBFBA2FA92F982F8827E6
:1002C000820F911DA11DB11DBC01CD0142E0660F41
:1002D000771F881F991F4A95D1F70895CF92DF9213
:1002E000EF92FF920F931F93CF93DF936C017A01EC
:1002F0008B01C0E0D0E0CE15DF0581F0D8016D9113
:100300008D01D601ED91FC910190F081E02DC601A7
:100310000995892B11F02196EECF7E01C701DF915F
:10032000CF911F910F91FF90EF90DF90CF900895A4
:10033000089580E090E00895FC01538D448D252FB1
:1003400030E0842F90E0821B930B541710F0CF966F
:10035000089501970895FC01918D828D981761F0A1
:10036000828DDF01A80FB11D5D968C91928D9F5FEC
:100370009F73928F90E008958FEF9FEF0895FC0197
:10038000918D828D981731F0828DE80FF11D858D4A
:1003900090E008958FEF9FEF0895FC01918D228DDD
:1003A000892F90E0805C9F4F821B91098F73992762
:1003B000089580E791E00E94CD0121E0892B09F4A6
:1003C00020E0822F0895FC01848DDF01A80FB11D6C
:1003D000A35ABF4F2C91848D90E001968F7399277B
:1003E000848FA689B7892C93A089B1898C91837059
:1003F00080648C93938D848D981306C00288F38952
:10040000E02D80818F7D80830895EF92FF920F937E
:100410001F93CF93DF93EC0181E0888F9B8D8C8DB0
:10042000981305C0E889F989808185FD26C0F62EDC
:100430000B8D10E00F5F1F4F0F731127E02E8C8D77
:10044000E8120CC00FB607FCFACFE889F989808161
:1004500085FFF5CFCE010E94E301F1CF8B8DFE0128
:10046000E80FF11DE35AFF4FF0829FB7F8940B8F0E
:10047000EA89FB89808180620AC09FB7F894EE897F
:10048000FF896083E889F989808183708064808333
:100490009FBF81E090E0DF91CF911F910F91FF907E
:1004A000EF900895682F80E791E00C940502CF93B8
:1004B000DF93EC01888D8823C9F0EA89FB8980816C
:1004C00085FD05C0A889B9898C9186FD0FC00FB63E
:1004D00007FCF5CF808185FFF2CFA889B9898C917F
:1004E00085FFEDCFCE010E94E301E7CFDF91CF91F1
:1004F000089580E090E0892B29F00E94D9018111B4
:100500000C9400000895CF93DF93009779F0FC01DD
:1005100001900020E9F73197AF01481B590BBC014E
:1005200080E791E00E946E01EC0102C0C0E0D0E0E3
:1005300042E050E062E171E080E791E00E946E01EC
:100540008C0F9D1FDF91CF9108950E9487041F9209
:100550000F920FB60F9211242F933F938F939F9377
:10056000AF93BF938091680190916901A0916A0156
:10057000B0916B013091670123E0230F2D3720F4F8
:100580000196A11DB11D05C026E8230F0296A11DED
:10059000B11D209367018093680190936901A09336
:1005A0006A01B0936B0180916C0190916D01A091F3
:1005B0006E01B0916F010196A11DB11D80936C0178
:1005C00090936D01A0936E01B0936F01BF91AF91B5
:1005D0009F918F913F912F910F900FBE0F901F9081
:1005E00018951F920F920FB60F9211242F933F93DD
:1005F0004F935F936F937F938F939F93AF93BF932B
:10060000EF93FF9380E791E00E94E301FF91EF9168
:10061000BF91AF919F918F917F916F915F914F911A
:100620003F912F910F900FBE0F901F9018951F9222
:100630000F920FB60F9211242F938F939F93EF93E6
:10064000FF93E0918001F09181018081E09186012A
:10065000F091870182FD12C09081809189018F5FA6
:100660008F7320918A01821751F0E0918901F0E0A7
:10067000E059FE4F958F8093890101C08081FF91E1
:10068000EF919F918F912F910F900FBE0F901F9020
:100690001895789484B5826084BD84B5816084BDEA
:1006A00085B5826085BD85B5816085BD80916E0010
:1006B000816080936E001092810080918100826041
:1006C000809381008091810081608093810080917E
:1006D00080008160809380008091B100846080936D
:1006E000B1008091B00081608093B00080917A0069
:1006F000846080937A0080917A00826080937A008F
:1007000080917A00816080937A0080917A0080687D
:1007100080937A001092C10061E08AE00E940D018E
:1007200061E08BE00E940D01E0918001F091810178
:1007300082E08083E0917C01F0917D011082E09164
:100740007E01F0917F018FEC808310928801E0910F
:100750008401F091850186E08083E0918201F0912F
:100760008301808180618083E0918201F091830127
:10077000808188608083E0918201F0918301808193
:1007800080688083E0918201F091830180818F7D78
:10079000808360E08AE00E94DE0060E08BE00E94DF
:1007A000DE0060E086E00E940D0160E087E00E94CC
:1007B0000D0186E00E94B50087E00E94B50080E050
:1007C00090E00E94520285E191E00E9483020E9423
:1007D00049016B017C0184EF882E99249394A12C0C
:1007E000B12C0E944901DC01CB018C199D09AE0995
:1007F000BF09883E9340A105B10598F321E0821A14
:100800009108A108B10888EEC80E83E0D81EE11C4B
:10081000F11C81149104A104B10419F780E791E05F
:100820000E94CD011816190634F480E791E00E9469
:10083000AB018093660180916601813379F461E0B8
:100840008AE00E94DE0060E08BE00E94DE0081E032
:1008500090E00E94520288E291E021C0823379F454
:1008600060E08AE00E94DE0061E08BE00E94DE0032
:1008700082E090E00E9452028DE391E010C080334C
:1008800081F460E08AE00E94DE0060E08BE00E947C
:10089000DE0080E090E00E94520282E591E00E943A
:1008A00083020E94790285CFE0E7F1E01382128291
:1008B00088EE93E0A0E0B0E084839583A683B783BD
:1008C00084E091E09183808385EC90E09587848734
:1008D00084EC90E09787868780EC90E0918B808B0A
:1008E00081EC90E0938B828B82EC90E0958B848BF3
:1008F00086EC90E0978B868B118E128E138E148E61
:100900000895EE0FFF1F0590F491E02D099481E00A
:0C09100090E0F8940C948C04F894FFCF55
:10091C000000000005026E019C015702CD01AB01E5
:10092C00BF010D0A00706173206465206465706CF2
:10093C006163656D656E7400636F6C6C6973696F70
:10094C006E20C3A02064726F6974650A00636F6CBB
:10095C006C6973696F6E20C3A020676175636865ED
:10096C000A0070617320646520636F6C6C69736935
:06097C006F6E200A00006E
:00000001FF
